:100000000C94E6020C940E030C940E030C94750DE4
:100010000C94750D0C94750D0C940E030C940E033A
:100020000C940E030C940E030C940E030C940E030C
:100030000C940E030C940E030C940E030C940E03FC
:100040000C94060F0C940E030C946E110C94A011DA
:100050000C940E030C940E030C940E030C940E03DC
:100060000C940E030C940E03050800FF0C4B0000CB
:100070000000003E5B4F5B3E3E6B4F6B3E1C3E7C88
:100080003E1C183C7E3C181C577D571C1C5E7F5E36
:100090001C00183C1800FFE7C3E7FF0018241800F5
:1000A000FFE7DBE7FF30483A060E2629792926408C
:1000B0007F050507407F05253F5A3CE73C5A7F3EB8
:1000C0001C1C08081C1C3E7F14227F22145F5F004A
:1000D0005F5F06097F017F006689956A60606060E6
:1000E0006094A2FFA29408047E040810207E2010D1
:1000F00008082A1C08081C2A08081E101010100CDA
:100100001E0C1E0C30383E3830060E3E0E06000027
:1001100000000000005F00000007000700147F14CB
:100120007F14242A7F2A122313086462364956203A
:10013000500008070300001C2241000041221C005F
:100140002A1C7F1C2A08083E08080080703000081E
:1001500008080808000060600020100804023E51F2
:1001600049453E00427F4000724949494621414984
:100170004D331814127F1027454545393C4A4949EB
:100180003141211109073649494936464949291E55
:100190000000140000004034000000081422411444
:1001A00014141414004122140802015909063E4196
:1001B0005D594E7C1211127C7F494949363E4141BE
:1001C00041227F4141413E7F494949417F09090917
:1001D000013E414151737F0808087F00417F410083
:1001E0002040413F017F081422417F404040407F32
:1001F000021C027F7F0408107F3E4141413E7F097F
:100200000909063E4151215E7F09192946264949BF
:10021000493203017F01033F4040403F1F204020FF
:100220001F3F4038403F63140814630304780403FD
:100230006159494D43007F414141020408102000AB
:100240004141417F0402010204404040404000031C
:1002500007080020545478407F28444438384444E8
:100260004428384444287F385454541800087E09E0
:100270000218A4A49C787F0804047800447D400000
:100280002040403D007F1028440000417F40007C1A
:10029000047804787C080404783844444438FC1812
:1002A00024241818242418FC7C08040408485454F6
:1002B000542404043F44243C4040207C1C20402023
:1002C0001C3C4030403C44281028444C9090907C8A
:1002D0004464544C4400083641000000770000009C
:1002E0004136080002010204023C2623263C1EA1DE
:1002F000A161123A4040207A38545455592155553D
:1003000079412154547841215554784020545579ED
:10031000400C1E527212395555555939545454597E
:1003200039555454580000457C410002457D420037
:1003300001457C40F0292429F0F0282528F07C5440
:100340005545002054547C547C0A097F4932494960
:1003500049323248484832324A4848303A414121CD
:100360007A3A42402078009DA0A07D394444443927
:100370003D4040403D3C24FF2424487E4943662BB9
:100380002FFC2F2BFF0929F620C0887E090320545B
:100390005479410000447D413048484A3238404059
:1003A000227A007A0A0A727D0D19317D2629292FB9
:1003B00028262929292630484D40203808080808D1
:1003C00008080808382F10C8ACBA2F102834FA00D3
:1003D000007B000008142A142222142A1408AA0000
:1003E0005500AAAA55AA55AA000000FF0010101037
:1003F000FF00141414FF001010FF00FF1010F01085
:10040000F0141414FC001414F700FF0000FF00FFA8
:100410001414F404FC141417101F10101F101F14D0
:1004200014141F00101010F0000000001F10101016
:10043000101F10101010F010000000FF101010100E
:100440001010101010FF10000000FF140000FF003B
:10045000FF00001F10170000FC04F41414171017FD
:100460001414F404F40000FF00F71414141414140A
:1004700014F700F7141414171410101F101F14147D
:1004800014F4141010F010F000001F101F000000F2
:100490001F14000000FC140000F010F01010FF10FA
:1004A000FF141414FF141010101F00000000F010AF
:1004B000FFFFFFFFFFF0F0F0F0F0FFFFFF00000094
:1004C0000000FFFF0F0F0F0F0F38444438447C2A01
:1004D0002A3E147E02020606027E027E026355490F
:1004E00041633844443C04407E201E2006027E02C4
:1004F0000299A5E7A5991C2A492A1C4C7201724C45
:10050000304A4D4D303048784830BC625A463D3E06
:10051000494949007E0101017E2A2A2A2A2A4444A7
:100520005F444440514A444040444A51400000FF27
:100530000103E080FF000008086B6B0836123624C8
:1005400036060F090F0600001818000000101000F2
:100550003040FF0101001F01011E00191D1712008C
:100560003C3C3C3C00000000000000000800020190
:100570000000030407000000000000000001020466
:100580000810204080010204081020010204081015
:10059000200404040404040404020202020202030C
:1005A00003030303030000000023002600290000CA
:1005B000000000250028002B000000000024002778
:1005C000002A00001F05770CD0113C0511241FBE26
:1005D000CFEFD8E0DEBFCDBF13E0A0E0B1E0E8ECA4
:1005E000FDE202C005900D92AA39B107D9F724E0C7
:1005F000AAE9B3E001C01D92A43EB207E1F715E0FD
:10060000CAECD5E004C02297FE010E942D15C43C1F
:10061000D107C9F70E9414120C94D7160C9400004D
:100620004F925F926F927F928F929F92AF92BF9202
:10063000CF92DF92EF92FF920F931F93CF93DF93AE
:10064000CDB7DEB72C970FB6F894DEBF0FBECDBF87
:1006500069837A838B839C8329013A01ED82FE8230
:100660000F831887A986BA86CB86DC86C601B501BA
:100670000E947D13962EC801B7010E947D13162F8C
:10068000C301B2010E947D13862E69817A818B811C
:100690009C810E947D13B62ECC24C394EE24E39457
:1006A000092D212F482D87EE93E00E94900980911B
:1006B0001101882349F16091C6037091C70388270F
:1006C00077FD8095982F0E94AB136B017C012D81E3
:1006D0003E814F8158850E94AC120E947D13A62E48
:1006E00029813A814B815C81C701B6010E94AC121D
:1006F0000E947D13CC24C394EE24E3942A2D482D2C
:1007000087EE93E00E94900980911001882341F1C7
:100710006091C4037091C503882777FD8095982F59
:100720000E94AB136B017C0129853A854B855C8562
:100730000E94AC120E947D13062FA3019201C701F3
:10074000B6010E94AC120E947D13462FCC24C394A4
:10075000EE24E394212F6B2D87EE93E00E94900905
:1007600080911101882309F450C0809110018823E1
:1007700009F44BC06091C4037091C503882777FDCD
:100780008095982F0E94AB134B015C016091C603CA
:100790007091C703882777FD8095982F0E94AB132F
:1007A0006B017C0129853A854B855C85C501B401C7
:1007B0000E94AC120E947D13062F2D813E814F8135
:1007C0005885C701B6010E94AC120E947D13162FF6
:1007D000A3019201C501B4010E94AC120E947D13D5
:1007E000B62E29813A814B815C81C701B6010E94F6
:1007F000AC120E947D13CC24C394EE24E394212FE9
:100800004B2D87EE93E00E94900987EE93E02C96A3
:100810000FB6F894DEBF0FBECDBFDF91CF911F9111
:100820000F91FF90EF90DF90CF90BF90AF909F908F
:100830008F907F906F905F904F900C94CE0B8F9223
:100840009F92AF92BF92CF92DF92EF92FF9263E6B8
:1008500070E080E090E00E946B126B017C012091BF
:100860000E0130910F01442737FD4095542F6091C0
:100870000C0170910D01882777FD8095982F0E94BB
:100880008F124B015C01C701B6010E94AB1320E03F
:1008900030E048EC52E40E9415132AE037ED43E2C1
:1008A0005CE30E94AD126B017C01C501B4010E94A2
:1008B000AB139B01AC01C701B6010E945F14FF900E
:1008C000EF90DF90CF90BF90AF909F908F90089562
:1008D0006091C6037091C703882777FD8095982F94
:1008E0000E946B120E94AB136093B6037093B70320
:1008F0008093B8039093B9036091C6037091C703C6
:10090000882777FD8095982F0E946B120E94AB1369
:100910006093B2037093B3038093B4039093B503D1
:100920006091C4037091C503882777FD8095982F47
:100930000E946B120E94AB136093AE037093AF03DF
:100940008093B0039093B1036091C4037091C50389
:10095000882777FD8095982F0E946B120E94AB1319
:100960006093AA037093AB038093AC039093AD03A1
:100970000E941F046093A6037093A7038093A803AB
:100980009093A9030E941F046093A2037093A30392
:100990008093A4039093A5030E941F0460939E0379
:1009A00070939F038093A0039093A1030E941F0460
:1009B00060939A0370939B0380939C0390939D0391
:1009C00008958AEB93E00E94B8081092C303109236
:1009D000C203089561E087EE93E00E94BF0B60E0E0
:1009E00087EE93E00E94BF0B87EE93E00C94CE0B52
:1009F000CF92DF92EF92FF92CF93DF936B017C0156
:100A000020E030E0A9010E94111387FD0FC0D1E062
:100A1000C0E020E030E0A901C701B6010E94111337
:100A2000811101C0D0E08D2F9C2F02C08FEF9FEF6E
:100A3000DF91CF91FF90EF90DF90CF90089520E06D
:100A400046E065E088EC93E00E94480E87EE93E074
:100A50000E94030A90E09093C7038093C60387EE39
:100A600093E00E94010A90E09093C5038093C40331
:100A70008AEB93E00C94A10888EC93E00C94EF0DC2
:100A800065E972E088EC93E00E94611288EC93E0E3
:100A90000C94270D87EE93E00E940F0C0E94EA044D
:100AA00080E00E94D60F0E9463120E94680460E0FA
:100AB00087EE93E00E94050A40E060E087EE93E055
:100AC0000E944C0940E659E060E070E088EC93E059
:100AD0000E94780E0E94400560E273E08AEB93E08A
:100AE0000C94A208CF93DF931F92CDB7DEB788ECAA
:100AF00093E00E940F0D181619060CF07DC088ECCB
:100B000093E00E94820C863571F1BCF4853409F4BF
:100B100051C074F4803209F05DC00E9440050E940B
:100B2000EA040E9468040F90DF91CF910C94E104D5
:100B3000883471F0893411F14DC0883649F01CF4C5
:100B40008536C1F147C08936C9F0863761F042C0A9
:100B50000E94EA040E94E1048091110191E089273A
:100B60008093110149C00E94EA040E94E10480912F
:100B7000100191E08927809310013EC080910E0101
:100B800090910F018830910541F08031910561F01D
:100B9000049769F488E090E002C080E190E09093CF
:100BA0000F0180930E0128C080E290E0F8CF84E02E
:100BB00090E0F5CF80910C0190910D01019719F40F
:100BC00082E090E002C081E090E090930D0180937C
:100BD0000C0112C090ED980F9A3070F489830E9436
:100BE000EA040E94E1048981992787FD9095C097C6
:100BF00090930B0180930A010F90DF91CF9108959C
:100C00004F925F926F927F928F929F92AF92BF921C
:100C1000CF92DF92EF92FF920F931F93CF93DF93C8
:100C2000CDB7DEB728970FB6F894DEBF0FBECDBFA5
:100C3000A090AA03B090AB03C090AC03D090AD03DA
:100C4000E090B203F090B3030091B4031091B503A8
:100C50002091AE033091AF034091B0035091B103A6
:100C60006091B6037091B7038091B8039091B90376
:100C70000E94100364E170E080E090E00E94730F36
:100C80004091B6035091B7036091B8037091B903D6
:100C90008AEB93E00E94FE084091AE035091AF03AF
:100CA0006091B0037091B1038AEB93E00E94FE085B
:100CB0004091B2035091B3036091B4037091B503B6
:100CC0008AEB93E00E94FE084091AA035091AB0387
:100CD0006091AC037091AD038AEB93E00E94FE0833
:100CE0008091C2039091C30340910A0150910B017E
:100CF00065E0649F9001659F300D11248217930772
:100D00005CF18AEB93E00E9423092B013C018AEB02
:100D100093E00E9423099B01AC018AEB93E02D83B1
:100D20003E834F8358870E94230969837A838B838C
:100D30009C838AEB93E00E9423095B016C01E980AC
:100D4000FA800B811C812D813E814F815885C30122
:100D5000B2010E94100305C001969093C3038093D3
:100D6000C2038090A6039090A703A090A803B09020
:100D7000A9032091B6033091B7034091B803509175
:100D8000B903C501B4010E94AD126B017C016093EF
:100D9000B6037093B7038093B8039093B90320917F
:100DA000A2033091A3034091A4035091A503609145
:100DB000AE037091AF038091B0039091B1030E9494
:100DC000AD126093AE037093AF038093B003909322
:100DD000B10320919E0330919F034091A003509155
:100DE000A1036091B2037091B3038091B403909119
:100DF000B5030E94AD126093B2037093B303809366
:100E0000B4039093B50320919A0330919B034091D2
:100E10009C0350919D036091AA037091AB03809154
:100E2000AC039091AD030E94AD126093AA0370933E
:100E3000AB038093AC039093AD036091C6037091B4
:100E4000C703882777FD8095982F0E94AB139B01DD
:100E5000AC01C701B6010E945B1487FF0AC020E005
:100E600030E040E85FE3C701B6010E94111387FF3D
:100E700033C0A5019401C701B6010E94AC12609372
:100E8000B6037093B7038093B8039093B903C50179
:100E9000B4010E94F8048C010E941F049B01AC0164
:100EA00066277727601B710B882777FD8095982F21
:100EB0002D833E834F8358870E94AB132D813E8143
:100EC0004F8158850E945F146093A6037093A70317
:100ED0008093A8039093A903C090AE03D090AF0372
:100EE000E090B003F090B1036091C4037091C5032A
:100EF000882777FD8095982F0E94AB139B01AC014A
:100F0000C701B6010E945B1487FF0AC020E030E0F1
:100F100040E85FE3C701B6010E94111387FF3BC0A1
:100F20008090A2039090A303A090A403B090A50387
:100F3000A5019401C701B6010E94AC126093AE03F3
:100F40007093AF038093B0039093B103C501B401D4
:100F50000E94F8048C010E941F049B01AC016627CB
:100F60007727601B710B882777FD8095982F2D833D
:100F70003E834F8358870E94AB132D813E814F8162
:100F800058850E945F146093A2037093A30380931B
:100F9000A4039093A503C090B203D090B303E09054
:100FA000B403F090B5036091C6037091C70388271E
:100FB00077FD8095982F0E94AB139B01AC01C70170
:100FC000B6010E945B1487FF0AC020E030E040E8D1
:100FD0005FE3C701B6010E94111387FF3BC08090F9
:100FE0009E0390909F03A090A003B090A103A50141
:100FF0009401C701B6010E94AC126093B2037093D2
:10100000B3038093B4039093B503C501B4010E9468
:10101000F8048C010E941F049B01AC01662777270E
:10102000601B710B882777FD8095982F2D833E8359
:101030004F8358870E94AB132D813E814F81588585
:101040000E945F1460939E0370939F038093A0039C
:101050009093A103C090AA03D090AB03E090AC039F
:10106000F090AD036091C4037091C503882777FDAC
:101070008095982F0E94AB139B01AC01C701B6016C
:101080000E945B1487FF0AC020E030E040E85FE385
:10109000C701B6010E94111387FF3BC080909A03DD
:1010A00090909B03A0909C03B0909D03A501940198
:1010B000C701B6010E94AC126093AA037093AB0300
:1010C0008093AC039093AD03C501B4010E94F80472
:1010D0008C010E941F049B01AC0166277727601BCF
:1010E000710B882777FD8095982F2D833E834F8342
:1010F00058870E94AB132D813E814F8158850E94F5
:101100005F1460939A0370939B0380939C03909366
:101110009D0328960FB6F894DEBF0FBECDBFDF91BA
:10112000CF911F910F91FF90EF90DF90CF90BF90E4
:10113000AF909F908F907F906F905F904F900C94A6
:10114000720508950F931F93CF93DF93EC018B01EA
:10115000CB010E944B15998388831B830A831D82D0
:101160001C821F821E82DF91CF911F910F910895E3
:10117000FC0115821482178216820895CF93FC0118
:10118000C62F46815781628173814617570798F4AD
:1011900084819581840F951F0E94C214A081B18122
:1011A000A80FB91FCC938681978101969783868378
:1011B00081E090E002C080E090E0CF910895CF936D
:1011C000FC012681378121153105A1F0448155812B
:1011D000A081B181A40FB51FCC91CA010196628193
:1011E00073810E94C214958384832150310937830F
:1011F000268301C0C0E08C2FCF9108950F931F93D9
:10120000CF93DF9300D000D0CDB7DEB78C014983F8
:101210005A836B837C836C810E94BE086B81C801FA
:101220000E94BE086A81C8010E94BE086981C80187
:101230000E94BE080F900F900F900F90DF91CF91FA
:101240001F910F9108950F931F93CF93DF9300D0B9
:1012500000D0CDB7DEB78C010E94DF088C83C801B7
:101260000E94DF088B83C8010E94DF088A83C801BF
:101270000E94DF08898369817A818B819C810F902C
:101280000F900F900F90DF91CF911F910F910895C4
:101290000DB407FEFDCF0895FC01638744870895D0
:1012A0000F936034D8F54033C8F50130C9F42130CC
:1012B000A9F5E42FE695E695E69580E4E89FF00130
:1012C0001124E60FF11DEE5EFE4F477081E090E0C5
:1012D000042E01C0880F0A94EAF7908198271DC058
:1012E000842F869586958695E62FF0E0477090E4EA
:1012F000899FE00DF11D1124EE5EFE4F81E090E02C
:10130000042E01C0880F0A94EAF7213019F4908165
:10131000982B03C080959081982390830F91089516
:101320007F928F929F92AF92BF92CF92DF92EF9275
:10133000FF920F931F93CF93DF93EC01162FF42EA0
:10134000D22EA02FB0E0A41BB109B7FF03C0B19506
:10135000A195B109ED2DF0E0E11BF109F7FF03C004
:10136000F195E195F109AA24A394EA17FB0714F07B
:10137000A12C06C09D2DD02E092F912F1F2DF92EA7
:10138000D11630F49F2DF02E092F912F1D2DD92E1F
:101390009D2C911AE02FF0E0EF19F109F7FF03C03F
:1013A000F195E195F1097E2EB92CB694F01618F45A
:1013B0008824839412C088248A940FC00C2D2E2D6B
:1013C000AA2071F0412F6F2DCE010E945009B7184D
:1013D000B7FE02C0F80CB90C1F5F1D1578F303C0EF
:1013E0004F2D612FF1CFDF91CF911F910F91FF9082
:1013F000EF90DF90CF90BF90AF909F908F907F90B5
:10140000089580E3089580E40895DC0161112EC001
:1014100018961C9218978091920290919302FC0169
:10142000249116962C9316973196E4911796EC9387
:101430001797FC013296E4911996EC931997FC01E9
:101440003396E4911A96EC931A97FC013496249102
:101450003196849190E0F4E62F9F800D911D112428
:101460001E969C938E931D9781E0089580E00895C9
:101470005F926F927F928F929F92AF92BF92CF9224
:10148000DF92EF92FF920F931F93CF93DF93EC01C4
:10149000162FB42EF02E3985231708F4B0C0822FF2
:1014A00090E06A8570E0630F711D681779070CF48E
:1014B000A6C0D22ED31A9F8096949694969481E0DB
:1014C0008915C0F1C12E3C2D311B2E81822F90E059
:1014D000A32FB0E08A179B070CF491C0321791F04C
:1014E000E885F0E0EE0FFF1FEE56FD4FD29EA00DF7
:1014F000B11D112416960190F081E02DEA0FFB1F1B
:10150000949001C0912CA12C4A2D4B0D90FE03C04C
:101510000E2D2F2D04C021E0F11020E00E2D6C2D9A
:10152000CE010E9450099694A39488E0A812ECCFB3
:10153000C394C9CFED85FE852E8130E0CF01B9017E
:101540000E94C2148D2D90E00E94C214829F6001FF
:10155000839FD00C929FD00C11249E9E90019F9E41
:10156000300D1124269FC001279F900D369F900DAE
:101570001124C80ED91E742EA12CB12C86E0C80EE1
:10158000D11C812E482D411B8E81481780F5E8859E
:10159000F0E0EE0FFF1FEE56FD4F2D853E85A29E1B
:1015A000C001A39E900DB29E900D11248C0D9D1D27
:1015B000840F911D0190F081E02DE80FF91F5490E8
:1015C000612C462D470D50FE03C00E2D2F2D04C05B
:1015D00021E0F11020E00E2D682DCE010E9450096F
:1015E0005694639488E06812ECCF8394CBCF8FEF4E
:1015F000A81AB80A88E0780EA91408F4C2CFDF91BF
:10160000CF911F910F91FF90EF90DF90CF90BF90FF
:10161000AF909F908F907F906F905F900895EF9222
:101620000F93CF93DF93EC01262F6A30A9F06D3032
:10163000C1F0ED800C814C856B850E94380A4E818B
:101640002B85240F2F5F2B8730E080E490E0841BF4
:101650009109821793072CF48C859F81890F8C87C1
:101660001B8681E090E0DF91CF910F91EF9008957C
:101670002A9A22982898209A60E08DE00E945510BE
:1016800060E08BE00E94551061E08DE00E941C102C
:1016900061E08BE00E941C108CB580618CBD0895C8
:1016A0008CB580648CBD2A98229A08950DB407FEEB
:1016B000FDCF2898209A2A9A22988CB58F7B8CBDD2
:1016C0000895CF93DF9300D0CDB7DEB74A83698307
:1016D0000E94500B69816EBD0E9448094A814EBD2F
:1016E0000F900F90DF91CF910C94560BCF93DF9317
:1016F00000D01F92CDB7DEB72B834A8369830E9447
:10170000500B69816EBD0E9448094A814EBD0E94FE
:1017100048092B812EBD0F900F900F90DF91CF9134
:101720000C94560B0F931F93CF93DF93EC0140E083
:1017300060E20E94610B2FE740E061E2CE010E946F
:10174000760B27E040E062E2CE010E94760B0E9419
:10175000500B289A20981EBC0FEF13E00E944809F6
:101760001EBC01501109D1F70E94560B42E060E205
:10177000CE01DF91CF911F910F910C94610B6130DD
:1017800011F40C94920B80E891E0E2E1F1E0DF01CA
:101790009C011D9221503040E1F708950F931F9353
:1017A000CF93DF93EC0140E060E20E94610B2FE5F4
:1017B00040E261E2CE010E94760B25E040E062E269
:1017C000CE010E94760B0E94500B289A209880919F
:1017D00012018EBD03E111E00E944809F8018191D8
:1017E0008F018EBDF2E002391F07B1F70E94560B40
:1017F00042E060E2CE01DF91CF911F910F910C94F6
:10180000610B2CB5982F93702C7F922B9CBD9DB5AE
:1018100082FB882780F99E7F982B9DBD0895CF93EA
:10182000DF93EC0160E00E94050A81E08C831D8259
:101830001B861C865F98579A61E084E00E941C100A
:1018400061E084E00E9455106AE070E080E090E082
:101850000E94730F5F9A579865E070E080E090E017
:101860000E94730F5F98579A84E00E94010C0E94B7
:10187000380B65E070E080E090E00E94730F5F9AA3
:1018800057986AE070E080E090E00E94730F4FE2AA
:1018900068EACE010E94610B44E16DE8CE010E942E
:1018A000610B0E94500B81EA8EBD0E94560B0E9474
:1018B000500B88EC8EBD0E94560B4FE861E8CE01BC
:1018C0000E94610B41EF69EDCE010E94610B40E483
:1018D0006BEDCE010E94610B0E94500B8FEA8EBD12
:1018E0000E94560BCE01DF91CF910C94920B109277
:1018F000EA031092E90385E793E09093E80380936D
:10190000E7030895209138043091390428173907E6
:10191000B9F49091F6038091F703981789F0E0915C
:10192000F603F0E0E850FC4F80812091F60330E0B0
:101930002F5F3F4F2F7333272093F60390E00895D6
:101940008FEF9FEF08951F93CF93DF93DC015C9699
:101950008D919C915D97009749F481E090E01396FA
:101960009C938E93129780E090E03BC05196ED914E
:10197000FC91529750962C915097322F30951FB76B
:101980005E964C915E9741FB772770F941FD60951B
:10199000F8944081772311F0422B01C04323408308
:1019A000EC012197F1F748E0508160FF02C0522B13
:1019B00001C053235083EC012197F1F76695415004
:1019C00099F78081772311F0832301C0822B8083D4
:1019D0001FBF5C968D919C915D970197F1F781E017
:1019E00090E0DF91CF911F910895209138043091BC
:1019F00039042817390781F49091F6038091F70391
:101A0000981751F0E091F603F0E0E850FC4F808128
:101A1000992787FD909508958FEF9FEF0895209166
:101A20003804309139042817390771F48091F7038D
:101A30002091F60390E0805C9F4F821B910960E447
:101A400070E00E94D614089580E090E008952091FF
:101A50003804309139042817390739F48FB7F894CE
:101A60001092F7031092F6038FBF0895E0913804A7
:101A7000F0913904E817F90769F4A389B4899C91B6
:101A80008589809589238C931092390410923804AB
:101A900081E0089580E00895CF93DF93EC018A8D73
:101AA0009B8D892BF1F080913804909139048C172B
:101AB0009D07B9F0009711F00E94360D8E8D8E7F34
:101AC0008E8F1092F7031092F603D0933904C093CF
:101AD0003804EB89FC8980819D89892B808381E092
:101AE00001C080E0DF91CF9108951F920F920FB651
:101AF0000F9211242F933F934F935F936F937F9394
:101B00008F939F93AF93BF93EF93FF93E09138042C
:101B1000F0913904309709F451C0868DA685B785B8
:101B2000958581FF04C08C91892329F447C08C914D
:101B3000892309F043C0A389B4899C918589809544
:101B400089238C93868997890197F1F7208D318DB0
:101B5000A685B785758558E040E0C9010197F1F782
:101B6000842F90E095958795482F6C91672309F015
:101B70004068515091F7868D81FD40958091F70323
:101B800090E001968F7399272091F603281749F06A
:101B9000A091F703B0E0A850BC4F4C938093F7039B
:101BA00003C0868D8160868F828D938D0197F1F7BA
:101BB000A389B4898C919589892B8C93FF91EF919E
:101BC000BF91AF919F918F917F916F915F914F9155
:101BD0003F912F910F900FBE0F901F9018952DE7FA
:101BE00033E0FC01318320830C94360D1F93CF9397
:101BF000DF93EC01162F6E8D6695617081E068278A
:101C0000812F0E94551061E0812F0E941C10812FAE
:101C100090E0FC01E358FA4FE491E88BFC01EF56A9
:101C2000FA4FE491F0E0EE0FFF1FE155FA4F859176
:101C300094919A8B898BDF91CF911F9108951F9377
:101C4000CF93DF93EC01162F60E0812F0E941C10D0
:101C50008E8D81FD04C061E0812F0E9455101C878C
:101C6000812F90E0FC01E358FA4FE491ED87FC01ED
:101C7000EF56FA4FE491F0E0EE0FFF1FEB55FA4FED
:101C8000859194919F878E87DF91CF911F910895C1
:101C9000FF920F931F93CF93DF93EC01F62E522FF9
:101CA0001B821A8208EE13E020E030E00C831D83D3
:101CB0002E833F838DE793E0998388831F8A1E8A52
:101CC000198E188E1B8E1A8E1D8E1C8E8E8D8E7FF9
:101CD00050FB81F98E8F642FCE010E94F60D6F2D7F
:101CE000CE01DF91CF911F910F91FF900C941F0EA9
:101CF000CF93DF93EC019A01AB011B8E1A8E198EE4
:101D0000188E1F8A1E8A60E079E08DE390E00E94C1
:101D10000C15C9012430310520F0B9016350710957
:101D200002C061E070E07D8F6C8FEC85E63108F0D9
:101D300068C0B901769567956431710518F06351F3
:101D4000710902C061E070E07F8B6E8B069718F01E
:101D5000C901059702C081E090E0998F888FC90181
:101D6000880F991F820F931F969587959695879553
:101D70008D30910510F00C9702C081E090E09B8FB0
:101D80008A8F20916800E83050F091E0EE3008F43E
:101D900090E081E001C0880F9A95EAF701C084E0E5
:101DA000822B809368002C85283038F02E3040F04C
:101DB000263148F48CE690E008C08DE690E005C03E
:101DC0008BE690E002C080E090E09C8B8B8B28300B
:101DD00030F481E001C0880F2A95EAF70DC0822F08
:101DE00090E02E3010F4089701C00E9791E001C0EA
:101DF000990F8A95EAF7892F8D8B8C8D9D8D019790
:101E0000F1F7CE01DF91CF910C944C0D1F920F9200
:101E10000FB60F9211242F933F938F939F93AF93FD
:101E2000BF9380913B0490913C04A0913D04B091FC
:101E30003E0430913A0423E0230F2D3720F401961D
:101E4000A11DB11D05C026E8230F0296A11DB11DDD
:101E500020933A0480933B0490933C04A0933D0468
:101E6000B0933E0480913F0490914004A0914104BE
:101E7000B09142040196A11DB11D80933F0490933F
:101E80004004A0934104B0934204BF91AF919F914D
:101E90008F913F912F910F900FBE0F901F9018952B
:101EA0003FB7F89480913F0490914004A091410481
:101EB000B091420426B5A89B05C02F3F19F00196AA
:101EC000A11DB11D3FBF6627782F892F9A2F620F62
:101ED000711D811D911D42E0660F771F881F991F9C
:101EE0004A95D1F70895CF92DF92EF92FF92CF9368
:101EF000DF936B017C010E94500FEB01C114D104F0
:101F0000E104F10489F00E94AB120E94500F6C1B97
:101F10007D0B683E734090F381E0C81AD108E10858
:101F2000F108C851DC4FEACFDF91CF91FF90EF90DD
:101F3000DF90CF900895789484B5826084BD84B595
:101F4000816084BD85B5826085BD85B5816085BDB4
:101F5000EEE6F0E0808181608083E1E8F0E01082CD
:101F6000808182608083808181608083E0E8F0E00E
:101F7000808181608083E1EBF0E0808184608083F8
:101F8000E0EBF0E0808181608083EAE7F0E080812F
:101F9000846080838081826080838081816080838F
:101FA0008081806880831092C10008958E3008F08F
:101FB0008E5087702091940290E4299F9001112403
:101FC000822B80937C0080917A00806480937A00D9
:101FD00080917A0086FDFCCF809178002091790075
:101FE00090E0922B0895833081F028F4813099F0AD
:101FF0008230A1F008958730A9F08830B9F084309C
:10200000D1F4809180008F7D03C0809180008F7714
:1020100080938000089584B58F7702C084B58F7D4A
:1020200084BD08958091B0008F7703C08091B00087
:102030008F7D8093B0000895CF93DF9390E0FC01F3
:10204000E358FA4F2491FC01EF56FA4F849188230C
:1020500049F190E0880F991FFC01E754FA4FA591D0
:10206000B49181559A4FFC01C591D4919FB76111EC
:1020700008C0F8948C91209582238C9388818223C8
:102080000AC0623051F4F8948C91322F309583233A
:102090008C938881822B888304C0F8948C91822B46
:1020A0008C939FBFDF91CF9108950F931F93CF9390
:1020B000DF931F92CDB7DEB7282F30E0F901E75943
:1020C000FA4F8491F901E358FA4F1491F901EF5650
:1020D000FA4F04910023C9F0882321F069830E94FC
:1020E000F30F6981E02FF0E0EE0FFF1FE155FA4F8B
:1020F000A591B4919FB7F8948C91611103C010958C
:10210000812301C0812B8C939FBF0F90DF91CF91D2
:102110001F910F910895FC01818D228D90E0805CCC
:102120009F4F821B91098F7399270895FC01918D10
:10213000828D981731F0828DE80FF11D858D90E02A
:1021400008958FEF9FEF0895FC01918D828D981770
:1021500061F0828DDF01A80FB11D5D968C91928D8B
:102160009F5F9F73928F90E008958FEF9FEF089588
:1021700086EC91E1892B49F080E090E0892B29F0F1
:102180000E94C61181110C9400000895FC01848DF9
:10219000DF01A80FB11DA35ABF4F2C91848D90E091
:1021A00001968F739927848FA689B7892C93A0896C
:1021B000B1898C9180648C93938D848D981306C023
:1021C0000288F389E02D80818F7D80830895CF93ED
:1021D000DF93EC01888D8823C9F0EA89FB8980812F
:1021E00085FD05C0A889B9898C9186FD0FC00FB601
:1021F00007FCF5CF808185FFF2CFA889B9898C9142
:1022000085FFEDCFCE010E94C610E7CFDF91CF91C1
:102210000895CF92DF92FF920F931F93CF93DF9396
:102220001F92CDB7DEB76C01DC015B969C915B978A
:102230005C968C915C97981307C05096ED91FC9139
:102240005197808185FD32C0F601038D10E00F5F4C
:102250001F4F0F731127F02EF601848DF81211C055
:102260000FB607FCF9CFD6015096ED91FC9151972E
:10227000808185FFF1CFC60169830E94C610698104
:10228000EBCF838DE80FF11DE35AFF4F6083D6013A
:102290005B960C935B975296ED91FC9153978081DE
:1022A0008062808381E058968C930DC0D60156964B
:1022B000ED91FC91579760835096ED91FC91519769
:1022C00080818064808381E090E00F90DF91CF91E6
:1022D0001F910F91FF90DF90CF9008951F920F9262
:1022E0000FB60F9211242F938F939F93EF93FF9329
:1022F000E0915304F09154048081E0915904F091ED
:102300005A0482FD12C0908180915C048F5F8F73AC
:1023100020915D04821751F0E0915C04F0E0ED5BE8
:10232000FB4F958F80935C0401C08081FF91EF91FA
:102330009F918F912F910F900FBE0F901F90189526
:102340001F920F920FB60F9211242F933F934F932A
:102350005F936F937F938F939F93AF93BF93EF930D
:10236000FF9383E494E00E94C610FF91EF91BF9128
:10237000AF919F918F917F916F915F914F913F911D
:102380002F910F900FBE0F901F90189583E494E04B
:102390000E948B1021E0892B09F420E0822F089500
:1023A000109246041092450488EE93E0A0E0B0E05D
:1023B0008093470490934804A0934904B0934A043F
:1023C0008DE893E0909344048093430485EC90E07F
:1023D0009093500480934F0484EC90E090935204C7
:1023E0008093510480EC90E09093540480935304C4
:1023F00081EC90E0909356048093550482EC90E039
:10240000909358048093570486EC90E090935A047C
:102410008093590410925C0410925D0410925E0443
:1024200010925F04089508950E949B0F0E9413125A
:102430000E944A05C8EBD0E10E9400062097E1F314
:102440000E94B810F9CFCF92DF92EF92FF920F93D4
:102450001F93CF93DF936C017A01EB01E60EF71E19
:1024600000E010E0CE15DF0561F06991D601ED9135
:10247000FC910190F081E02DC6010995080F191F0C
:10248000F1CFC801DF91CF911F910F91FF90EF9095
:10249000DF90CF9008956115710581F0DB010D90FB
:1024A0000020E9F7AD0141505109461B570BDC01F3
:1024B000ED91FC910280F381E02D099480E090E0A1
:1024C00008950C944B12009729F0BC0180E090E035
:1024D0000C94C6160895CF93DF9300D000D0CDB7EB
:1024E000DEB79B01AC01611571058105910569F0AD
:1024F00069833A834B835C830E94C11629813A81A8
:102500004B815C810E940C1503C060E070E0CB0140
:102510000F900F900F900F90DF91CF910895CF9271
:10252000DF92EF92FF926B017C01621773078407C1
:10253000950764F4CA01B9016C197D098E099F09D8
:102540000E946B126C0D7D1D8E1D9F1DFF90EF90E4
:10255000DF90CF90089508955058BB27AA270ED03A
:1025600070C161D130F066D120F031F49F3F11F499
:102570001EF456C10EF4E095E7FB4CC1E92F72D171
:1025800080F3BA17620773078407950718F071F490
:102590009EF58AC10EF4E0950B2EBA2FA02D0B01EB
:1025A000B90190010C01CA01A0011124FF27591B98
:1025B00099F0593F50F4503E68F11A16F040A22F9E
:1025C000232F342F4427585FF3CF4695379527950F
:1025D000A795F0405395C9F77EF41F16BA0B620B0E
:1025E000730B840BBAF09150A1F0FF0FBB1F661F55
:1025F000771F881FC2F70EC0BA0F621F731F841F98
:1026000048F4879577956795B795F7959E3F08F0BD
:10261000B3CF9395880F08F09927EE0F979587957C
:102620000895D4D008F481E008950CD00AC102D1F5
:1026300040F0F9D030F021F45F3F19F0EBC05111B8
:1026400034C1EEC00FD198F39923C9F35523B1F3E8
:10265000951B550BBB27AA2762177307840738F011
:102660009F5F5F4F220F331F441FAA1FA9F333D070
:102670000E2E3AF0E0E830D091505040E695001C24
:10268000CAF729D0FE2F27D0660F771F881FBB1FE0
:10269000261737074807AB07B0E809F0BB0B802DBA
:1026A000BF01FF2793585F4F2AF09E3F510568F006
:1026B000B1C0FBC05F3FECF3983EDCF386957795A5
:1026C0006795B795F7959F5FC9F7880F911D969508
:1026D000879597F90895E1E0660F771F881FBB1F64
:1026E000621773078407BA0720F0621B730B840B11
:1026F000BA0BEE1F88F7E0950895BCD088F09F577D
:1027000090F0B92F9927B751A0F0D1F0660F771F3D
:10271000881F991F1AF0BA95C9F712C0B13081F01D
:10272000C3D0B1E00895C0C0672F782F8827B85F65
:1027300039F0B93FCCF3869577956795B395D9F77E
:102740003EF490958095709561957F4F8F4F9F4F88
:102750000895E89409C097FB3EF490958095709594
:1027600061957F4F8F4F9F4F9923A9F0F92F96E9DD
:10277000BB279395F695879577956795B795F11152
:10278000F8CFFAF4BB0F11F460FF1BC06F5F7F4FEF
:102790008F4F9F4F16C0882311F096E911C0772301
:1027A00021F09EE8872F762F05C0662371F096E80A
:1027B000862F70E060E02AF09A95660F771F881FD9
:1027C000DAF7880F9695879597F90895990F00087D
:1027D000550FAA0BE0E8FEEF16161706E807F907F3
:1027E000C0F012161306E407F50798F0621B730B8E
:1027F000840B950B39F40A2661F0232B242B252B0F
:1028000021F408950A2609F4A140A6958FEF811DB1
:10281000811D089597F99F6780E870E060E0089552
:102820009FEF80EC089500240A94161617061806E8
:102830000906089500240A941216130614060506C4
:102840000895092E0394000C11F4882352F0BB0F55
:1028500040F4BF2B11F460FF04C06F5F7F4F8F4FB8
:102860009F4F089557FD9058440F551F59F05F3FF3
:1028700071F04795880F97FB991F61F09F3F79F0A2
:1028800087950895121613061406551FF2CF469524
:10289000F1DF08C0161617061806991FF1CF8695A6
:1028A0007105610508940895E894BB27662777278A
:1028B000CB0197F908958ADF08F48FEF08950BD0C4
:1028C000C0CFB1DF28F0B6DF18F0952309F0A2CF12
:1028D000A7CF1124EACFC6DFA0F3959FD1F3950FC0
:1028E00050E0551F629FF001729FBB27F00DB11D94
:1028F000639FAA27F00DB11DAA1F649F6627B00D24
:10290000A11D661F829F2227B00DA11D621F739F0C
:10291000B00DA11D621F839FA00D611D221F749F1A
:102920003327A00D611D231F849F600D211D822F61
:10293000762F6A2F11249F5750408AF0E1F08823A8
:102940004AF0EE0FFF1FBB1F661F771F881F9150B5
:102950005040A9F79E3F510570F05CCFA6CF5F3F76
:10296000ECF3983EDCF3869577956795B795F795E8
:10297000E7959F5FC1F7FE2B880F911D9695879570
:1029800097F90895AA1BBB1B51E107C0AA1FBB1FE3
:10299000A617B70710F0A61BB70B881F991F5A95EB
:1029A000A9F780959095BC01CD01089597FB072E5E
:1029B00016F4009407D077FD09D00E94C21407FCDA
:1029C00005D03EF4909581959F4F0895709561953F
:1029D0007F4F0895A1E21A2EAA1BBB1BFD010DC05B
:1029E000AA1FBB1FEE1FFF1FA217B307E407F507BF
:1029F00020F0A21BB30BE40BF50B661F771F881F9B
:102A0000991F1A9469F760957095809590959B0130
:102A1000AC01BD01CF010895052E97FB1EF4009473
:102A20000E94231557FD07D00E94EA1407FC03D02B
:102A30004EF40C94231550954095309521953F4FB9
:102A40004F4F5F4F089590958095709561957F4F9A
:102A50008F4F9F4F0895EE0FFF1F0590F491E02DCB
:102A600009940E943C15A59F900DB49F900DA49FC2
:102A7000800D911D11240895A29FB001B39FC00144
:102A8000A39F700D811D1124911DB29F700D811D9A
:102A90001124911D0895CF93DF938230910510F496
:102AA00082E090E0E091E204F091E30420E030E085
:102AB000A0E0B0E0309739F14081518148175907C3
:102AC000B8F04817590771F482819381109729F063
:102AD00013969C938E9312972CC09093E30480934B
:102AE000E20427C02115310531F04217530718F0D1
:102AF000A901DB0101C0EF019A01BD01DF010280E4
:102B0000F381E02DD7CF21153105F9F0281B390BC2
:102B10002430310580F48A819B816115710521F093
:102B2000FB019383828304C09093E3048093E204C7
:102B3000FE01329644C0FE01E20FF31F8193919390
:102B400022503109398328833AC02091E004309122
:102B5000E104232B41F420910201309103013093D1
:102B6000E1042093E004209100013091010121153E
:102B7000310541F42DB73EB7409104015091050154
:102B8000241B350BE091E004F091E104E217F30718
:102B9000A0F42E1B3F0B2817390778F0AC014E5FCD
:102BA0005F4F2417350748F04E0F5F1F5093E10425
:102BB0004093E0048193919302C0E0E0F0E0CF0104
:102BC000DF91CF910895CF93DF93009709F487C0E9
:102BD000FC01329713821282C091E204D091E30487
:102BE000209781F420813181280F391F8091E004E2
:102BF0009091E1048217930779F5F093E104E09353
:102C0000E0046DC0DE0120E030E0AE17BF0750F4F5
:102C100012964D915C9113979D014115510509F153
:102C2000DA01F3CFB383A28340815181840F951FD2
:102C30008A179B0771F48D919C911197840F951FB2
:102C400002969183808312968D919C911397938322
:102C500082832115310529F4F093E304E093E20423
:102C60003EC0D9011396FC93EE9312974D915D915E
:102C7000A40FB51FEA17FB0779F480819181840FB7
:102C8000951F0296D90111969C938E938281938110
:102C900013969C938E931297E0E0F0E08A819B81DB
:102CA000009719F0FE01EC01F9CFCE0102962881C0
:102CB0003981820F931F2091E0043091E10428179D
:102CC000390769F4309729F41092E3041092E20472
:102CD00002C013821282D093E104C093E004DF911A
:102CE000CF9108958F929F92AF92BF92CF92DF9231
:102CF000EF92FF92CF93DF93EC01688179818A8113
:102D00009B81611571058105910521F464E279EDDE
:102D10008BE597E02DE133EF41E050E00E940C1588
:102D200049015A019B01AC01A7EAB1E40E943115A7
:102D30006B017C01ACEEB4EFA50194010E94D216A8
:102D4000C60ED71EE81EF91EF7FE06C081E0C81A9F
:102D5000D108E10880E8F80AC882D982EA82FB82B9
:102D6000C701B6019F77DF91CF91FF90EF90DF9081
:102D7000CF90BF90AF909F908F9008950E94721651
:102D8000089586E091E00E9472160895609306010E
:102D90007093070180930801909309010895B7FF8C
:102DA0000C9431150E943115821B930B089515E088
:102DB000CAECD5E004C0FE010E942D152296CC3C41
:082DC000D107C9F7F894FFCF19
:102DC8000000E40480000100000004000100040089
:102DD80001010000000000000000000000000000E9
:102DE80000000000000000000000E0F8FCFEFFFF0B
:102DF800FFFFFFFFFF0F07070606008080000000A7
:102E080000000000000000000000000000000000BA
:102E180000000000000000000000000000000000AA
:102E28000000000080808080808081070F3F3FFF86
:102E3800FFFFFFFFFFFFFEFEFCFCFCFEFFFFFFFCA9
:102E4800F8E00000000000000000000000000000A2
:102E5800000000000000000000000000000000006A
:102E680000FCFEFFFFFFFFFFFFF1E0E0E0E0E0F025
:102E7800FDFFFFFFFFFFFFFFFFFFFFFFFFFFFFFF5C
:102E8800FFFF00000000000000000000000000003C
:102E9800000000000000000000000000000000002A
:102EA80000FFFFFFFFFFFFFFFFFFFFFFFFFFFFFF29
:102EB800FFFFFFFFFFFFFFFFFFFFFFFFFF7F3F1F3A
:102EC80007010000000000000000000000000000F2
:102ED80000000000000000000000000000000000EA
:102EE80000FFFFFFFFFFFFFFFFFF7F3F1F1F0F0FC9
:102EF8000F0F0F0F0F0F0707070303010000000054
:102F080000000000000000000000000000000000B9
:102F180000000000000000000000000000000000A9
:102F280000FF7F3F1F0F07030100000000000000A3
:102F38000000000000000000000000000000000089
:102F48000000000000000000000000000000000079
:102F580000006800014D6963726F5377696E746889
:102F680020436F6D6D616E64730A0A0D0D69202030
:102F78002020206368616E676573206D6178206921
:102F88006E6372656D656E742033323E31363E383D
:102F98003E340A0D6520202020206368616E676535
:102FA80073206D696E20696E6372656D656E74203D
:102FB800313C2D3E320A0D682020202020746F6796
:102FC800676C657320686F72697A6F6E616C2073C5
:102FD800796D6D657472790A0D7620202020207431
:102FE8006F67676C657320766572746963616C20BE
:102FF80073796D6D657472790A0D302D3920202032
:103008006368616E676573206C656E677468206FAE
:1030180066207461696C0A0D73706163652072655E
:103028007365747320646973706C61790A0A0D0D95
:1030380000000000000F0B231200000000A30C2367
:10304800120F0D820CF50C270D000000000911234A
:0A305800128B10A4109610E7100070
:00000001FF
