:100000000C94E6020C940E030C940E030C94F2096B
:100010000C94F2090C94F2090C940E030C940E0348
:100020000C940E030C940E030C940E030C940E030C
:100030000C940E030C940E030C940E030C940E03FC
:100040000C94830B0C940E030C94DA0D0C940C0E90
:100050000C940E030C940E030C940E030C940E03DC
:100060000C940E030C940E03050800FF0C4B0000CB
:100070000000003E5B4F5B3E3E6B4F6B3E1C3E7C88
:100080003E1C183C7E3C181C577D571C1C5E7F5E36
:100090001C00183C1800FFE7C3E7FF0018241800F5
:1000A000FFE7DBE7FF30483A060E2629792926408C
:1000B0007F050507407F05253F5A3CE73C5A7F3EB8
:1000C0001C1C08081C1C3E7F14227F22145F5F004A
:1000D0005F5F06097F017F006689956A60606060E6
:1000E0006094A2FFA29408047E040810207E2010D1
:1000F00008082A1C08081C2A08081E101010100CDA
:100100001E0C1E0C30383E3830060E3E0E06000027
:1001100000000000005F00000007000700147F14CB
:100120007F14242A7F2A122313086462364956203A
:10013000500008070300001C2241000041221C005F
:100140002A1C7F1C2A08083E08080080703000081E
:1001500008080808000060600020100804023E51F2
:1001600049453E00427F4000724949494621414984
:100170004D331814127F1027454545393C4A4949EB
:100180003141211109073649494936464949291E55
:100190000000140000004034000000081422411444
:1001A00014141414004122140802015909063E4196
:1001B0005D594E7C1211127C7F494949363E4141BE
:1001C00041227F4141413E7F494949417F09090917
:1001D000013E414151737F0808087F00417F410083
:1001E0002040413F017F081422417F404040407F32
:1001F000021C027F7F0408107F3E4141413E7F097F
:100200000909063E4151215E7F09192946264949BF
:10021000493203017F01033F4040403F1F204020FF
:100220001F3F4038403F63140814630304780403FD
:100230006159494D43007F414141020408102000AB
:100240004141417F0402010204404040404000031C
:1002500007080020545478407F28444438384444E8
:100260004428384444287F385454541800087E09E0
:100270000218A4A49C787F0804047800447D400000
:100280002040403D007F1028440000417F40007C1A
:10029000047804787C080404783844444438FC1812
:1002A00024241818242418FC7C08040408485454F6
:1002B000542404043F44243C4040207C1C20402023
:1002C0001C3C4030403C44281028444C9090907C8A
:1002D0004464544C4400083641000000770000009C
:1002E0004136080002010204023C2623263C1EA1DE
:1002F000A161123A4040207A38545455592155553D
:1003000079412154547841215554784020545579ED
:10031000400C1E527212395555555939545454597E
:1003200039555454580000457C410002457D420037
:1003300001457C40F0292429F0F0282528F07C5440
:100340005545002054547C547C0A097F4932494960
:1003500049323248484832324A4848303A414121CD
:100360007A3A42402078009DA0A07D394444443927
:100370003D4040403D3C24FF2424487E4943662BB9
:100380002FFC2F2BFF0929F620C0887E090320545B
:100390005479410000447D413048484A3238404059
:1003A000227A007A0A0A727D0D19317D2629292FB9
:1003B00028262929292630484D40203808080808D1
:1003C00008080808382F10C8ACBA2F102834FA00D3
:1003D000007B000008142A142222142A1408AA0000
:1003E0005500AAAA55AA55AA000000FF0010101037
:1003F000FF00141414FF001010FF00FF1010F01085
:10040000F0141414FC001414F700FF0000FF00FFA8
:100410001414F404FC141417101F10101F101F14D0
:1004200014141F00101010F0000000001F10101016
:10043000101F10101010F010000000FF101010100E
:100440001010101010FF10000000FF140000FF003B
:10045000FF00001F10170000FC04F41414171017FD
:100460001414F404F40000FF00F71414141414140A
:1004700014F700F7141414171410101F101F14147D
:1004800014F4141010F010F000001F101F000000F2
:100490001F14000000FC140000F010F01010FF10FA
:1004A000FF141414FF141010101F00000000F010AF
:1004B000FFFFFFFFFFF0F0F0F0F0FFFFFF00000094
:1004C0000000FFFF0F0F0F0F0F38444438447C2A01
:1004D0002A3E147E02020606027E027E026355490F
:1004E00041633844443C04407E201E2006027E02C4
:1004F0000299A5E7A5991C2A492A1C4C7201724C45
:10050000304A4D4D303048784830BC625A463D3E06
:10051000494949007E0101017E2A2A2A2A2A4444A7
:100520005F444440514A444040444A51400000FF27
:100530000103E080FF000008086B6B0836123624C8
:1005400036060F090F0600001818000000101000F2
:100550003040FF0101001F01011E00191D1712008C
:100560003C3C3C3C00000000000000000800020190
:100570000000030407000000000000000001020466
:100580000810204080010204081020010204081015
:10059000200404040404040404020202020202030C
:1005A00003030303030000000023002600290000CA
:1005B000000000250028002B000000000024002778
:1005C000002A0000EE04F4083C0E000511241FBEB2
:1005D000CFEFD8E0DEBFCDBF12E0A0E0B1E0EAE8A7
:1005E000F0E202C005900D92A23BB107D9F725E0D9
:1005F000A2EBB2E001C01D92A936B207E1F715E007
:10060000CAECD5E004C02297FE010E943410C43C1D
:10061000D107C9F70E94800E0C9438100C9400008A
:10062000CF9361E080E794E00E943C0860E080E7BF
:1006300094E00E943C0880E794E00E944B0840E070
:1006400060E080E794E00E94340610924804109223
:100650004704109246041092450460914904709139
:100660004A04E0914B04F0914C0442EB52E020E04C
:1006700030E0C0E22617370784F480E090E08E1760
:100680009F0734F4DA01A80FB91FCC930196F7CF76
:100690002F5F3F4F4C5E5F4FEDCF80E280930601AE
:1006A000CF910895CF93682F80E794E00E9482064F
:1006B00080E794E00E947806C82F80E794E00E94CB
:1006C0007F06682F8C2F0E94BD0F682F70E080E09E
:1006D00090E00E94060F0E94410F0E94D30E70937B
:1006E0004A046093490480E794E00E947A06C82F88
:1006F00080E794E00E947C06682F8C2F0E94BD0F3B
:10070000682F70E080E090E00E94060F0E94410F89
:100710000E94D30E70934C0460934B04CF910895C4
:10072000DF92EF92FF920F931F93CF93DF93EC0131
:100730008B01D42E97FD44C08091490490914A04C6
:10074000C817D907ECF577FD3BC080914B04909119
:100750004C0468177907A4F584E18C9FF0018D9F04
:10076000F00D1124E60FF71FEE54FD4F408380E794
:1007700094E00E947F068C9F70018D9FF00C1124E5
:1007800080E794E00E947C06282F30E02F5F3F4FE7
:10079000029FB001039F700D129F700D11244E2D0A
:1007A00080E794E00E9434066D2D80E794E0DF91AD
:1007B000CF911F910F91FF90EF90DF900C94B70EA7
:1007C000DF91CF911F910F91FF90EF90DF900895EF
:1007D000CF92DF92EF92FF920F931F93CF93DF930D
:1007E00020914504309146048091490490914A0437
:1007F000281739070CF44FC0C2EBD2E0CE01825B60
:1008000092407C0180914B0490914C04E816F906CB
:100810001CF0C0E0D0E01CC000E010E080E090E000
:100820000C5E1F4F2091490430914A0482179307B0
:100830006CF46C012FEFC21AD20AFE01E00FF11F17
:100840004081B7010E949003C601EACF2196D6CF1E
:1008500020914B0430914C048091490490914A04BA
:10086000C217D3073CF440E2BE0101970E949003F7
:100870002196EECF0197909346048093450480E73C
:1008800094E0DF91CF911F910F91FF90EF90DF9057
:10089000CF900C944B08DF91CF911F910F91FF9057
:1008A000EF90DF90CF9008956091470470914804D5
:1008B0004091060180914504909146040C94900368
:1008C000809145049091460424E1289FF001299FDE
:1008D000F00D11248091470490914804E80FF91F0E
:1008E000EE54FD4F808180930601089510924804D4
:1008F000109247048091450490914604019690938C
:100900004604809345040E94E8030E94600481E548
:1009100094E00C94BE0ECF93C82F60914704709161
:100920004804482F80914504909146040E9490030A
:100930006C2F81E594E00E94B70E8091470490915E
:100940004804019690934804809347040E946004F1
:1009500080914B0490914C04029720914704309170
:100960004804281739071CF0CF910C947604CF91D6
:10097000089580E794E00E948C0840E659E060E02A
:1009800070E081E594E00E94F50A80E090E00E942A
:1009900052030E94100382E50E948B0485E40E94AA
:1009A0008B0481E40E948B0484E40E948B0489E51B
:1009B0000E948B048EE20E948B040E94760480E7E2
:1009C00094E00E944B080E94CD0B60934D047093FD
:1009D0004E0480934F0490935004089520E046E025
:1009E00065E081E594E00E94C50A0E94CD0B60930A
:1009F0004D0470934E0480934F04909350040895D7
:100A000081E594E00C946C0A81E594E00E948C09E5
:100A1000892BD1F381E594E00E94FF0808950E949C
:100A200004058B3509F06CC081E0809342040E947C
:100A30000405823401F134F4813309F451C0813466
:100A400031F05AC0833429F18434B9F155C0809112
:100A5000450490914604181619060CF04DC00E94EA
:100A60005404809145049091460401979093460464
:100A7000809345043FC00E945404809145049091A6
:100A80004604019690934604809345040E94E8032F
:100A900031C080914B0490914C04039720914704FE
:100AA00030914804281739073CF50E94540480917E
:100AB00047049091480401960EC08091470490919C
:100AC000480418161906C4F40E945404809147047F
:100AD00090914804019790934804809347040AC07A
:100AE0000E94540410924604109245041092480447
:100AF000109247040E94600480E794E00C944B0835
:100B000008950F931F93CF93DF931F92CDB7DEB756
:100B10000E94CD0B00914D0410914E0420914F0482
:100B200030915004601B710B820B930B6E3471403B
:100B30008105910550F10E94CD0B60934D04709397
:100B40004E0480934F0490935004809143049091FD
:100B50004404892BA1F481E090E0909344048093B5
:100B600043040E94600460914704709148044AED78
:100B700080914504909146040E94900306C0109213
:100B80004404109243040E94540481E594E00E94BE
:100B90008C09181619060CF054C081E594E00E94E7
:100BA000FF088D30E9F04CF4883019F18C3009F0F1
:100BB00044C00E9410036CE037C08E3751F0CCF473
:100BC0008B31D9F50F90DF91CF911F910F910C943C
:100BD0000F0590914204992381F1109242043AC08A
:100BE0000E9454040F90DF91CF911F910F910C94AC
:100BF000760420914704309148041216130654F5E8
:100C000089830E9454042091470430914804215064
:100C10003109309348042093470490E290930601F1
:100C20000E9454048981682F81E594E00F90DF9140
:100C3000CF911F910F910C94B70E0E948B041092CC
:100C4000420480E794E00F90DF91CF911F910F91C4
:100C50000C944B080F90DF91CF911F910F91089545
:100C60000DB407FEFDCF0895FC0163874487089506
:100C70000F936034D8F54033C8F50130C9F4213002
:100C8000A9F5E42FE695E695E69580E4E89FF00166
:100C90001124E60FF11DE95FFE4F477081E090E0FF
:100CA000042E01C0880F0A94EAF7908198271DC08E
:100CB000842F869586958695E62FF0E0477090E420
:100CC000899FE00DF11D1124E95FFE4F81E090E066
:100CD000042E01C0880F0A94EAF7213019F490819C
:100CE000982B03C080959081982390830F9108954D
:100CF00080E3089580E40895FC0186810895FC0155
:100D000087810895DC0161112EC018961C921897F6
:100D10008091870290918802FC01249116962C9371
:100D200016973196E4911796EC931797FC0132963B
:100D3000E4911996EC931997FC013396E4911A9675
:100D4000EC931A97FC01349624913196849190E0AB
:100D5000F4E62F9F800D911D11241E969C938E9377
:100D60001D9781E0089580E008955F926F927F92D1
:100D70008F929F92AF92BF92CF92DF92EF92FF92AB
:100D80000F931F93CF93DF93EC01162FB42EF02E09
:100D90003985231708F4B0C0822F90E06A8570E08F
:100DA000630F711D681779070CF4A6C0D22ED31AF1
:100DB0009F8096949694969481E08915C0F1C12EF7
:100DC0003C2D311B2E81822F90E0A32FB0E08A179B
:100DD0009B070CF491C0321791F0E885F0E0EE0F1C
:100DE000FF1FE957FD4FD29EA00DB11D112416968D
:100DF0000190F081E02DEA0FFB1F949001C0912C2F
:100E0000A12C4A2D4B0D90FE03C00E2D2F2D04C09A
:100E100021E0F11020E00E2D6C2DCE010E9438064D
:100E20009694A39488E0A812ECCFC394C9CFED8523
:100E3000FE852E8130E0CF01B9010E94C90F8D2DB2
:100E400090E00E94C90F829F6001839FD00C929F07
:100E5000D00C11249E9E90019F9E300D1124269F40
:100E6000C001279F900D369F900D1124C80ED91EEA
:100E7000742EA12CB12C86E0C80ED11C812E482DD9
:100E8000411B8E81481780F5E885F0E0EE0FFF1FCB
:100E9000E957FD4F2D853E85A29EC001A39E900D72
:100EA000B29E900D11248C0D9D1D840F911D0190FB
:100EB000F081E02DE80FF91F5490612C462D470D6D
:100EC00050FE03C00E2D2F2D04C021E0F11020E0B4
:100ED0000E2D682DCE010E9438065694639488E04A
:100EE0006812ECCF8394CBCF8FEFA81AB80A88E0B2
:100EF000780EA91408F4C2CFDF91CF911F910F9102
:100F0000FF90EF90DF90CF90BF90AF909F908F9029
:100F10007F906F905F900895EF920F93CF93DF9340
:100F2000EC01262F6A30A9F06D30C1F0ED800C8104
:100F30004C856B850E94B5064E812B85240F2F5F53
:100F40002B8730E080E490E0841B9109821793079F
:100F50002CF48C859F81890F8C871B8681E090E023
:100F6000DF91CF910F91EF9008952A9A22982898B7
:100F7000209A60E08DE00E94C10C60E08BE00E944E
:100F8000C10C61E08DE00E94880C61E08BE00E9462
:100F9000880C8CB580618CBD08958CB580648CBD47
:100FA0002A98229A08950DB407FEFDCF2898209A1A
:100FB0002A9A22988CB58F7B8CBD0895CF93DF93AE
:100FC00000D0CDB7DEB74A8369830E94CD0769811F
:100FD0006EBD0E9430064A814EBD0F900F90DF918A
:100FE000CF910C94D307CF93DF9300D01F92CDB74E
:100FF000DEB72B834A8369830E94CD0769816EBD6A
:101000000E9430064A814EBD0E9430062B812EBDC3
:101010000F900F900F90DF91CF910C94D3070F9307
:101020001F93CF93DF93EC0140E060E20E94DE0764
:101030002FE740E061E2CE010E94F30727E040E0A5
:1010400062E2CE010E94F3070E94CD07289A209801
:101050001EBC0FEF13E00E9430061EBC01501109A8
:10106000D1F70E94D30742E060E2CE01DF91CF9139
:101070001F910F910C94DE07613011F40C940F084E
:1010800080E891E0E7E0F1E0DF019C011D92215052
:101090003040E1F708950F931F93CF93DF93EC0156
:1010A00040E060E20E94DE072FE540E261E2CE010F
:1010B0000E94F30725E040E062E2CE010E94F307C0
:1010C0000E94CD07289A2098809107018EBD08E0E4
:1010D00011E00E943006F80181918F018EBDF2E08F
:1010E00007381F07B1F70E94D30742E060E2CE0144
:1010F000DF91CF911F910F910C94DE072CB5982FA3
:1011000093702C7F922B9CBD9DB582FB882780F924
:101110009E7F982B9DBD0895CF93DF93EC0160E0F7
:101120000E94820681E08C831D821B861C865F984C
:10113000579A61E084E00E94880C61E084E00E949C
:10114000C10C6AE070E080E090E00E94FC0B5F9AC6
:10115000579865E070E080E090E00E94FC0B5F989B
:10116000579A84E00E947E080E94B50765E070E00F
:1011700080E090E00E94FC0B5F9A57986AE070E074
:1011800080E090E00E94FC0B4FE268EACE010E94F2
:10119000DE0744E16DE8CE010E94DE070E94CD0724
:1011A00081EA8EBD0E94D3070E94CD0788EC8EBDD8
:1011B0000E94D3074FE861E8CE010E94DE0741EFAD
:1011C00069EDCE010E94DE0740E46BEDCE010E9486
:1011D000DE070E94CD078FEA8EBD0E94D307CE01A5
:1011E000DF91CF910C940F08109273041092720447
:1011F0008DE892E09093710480937004089520919B
:10120000C1043091C20428173907B9F490917F04C2
:1012100080918004981789F0E0917F04F0E0EF5707
:10122000FB4F808120917F0430E02F5F3F4F2F7371
:10123000332720937F0490E008958FEF9FEF089568
:101240001F93CF93DF93DC015C968D919C915D970A
:10125000009749F481E090E013969C938E93129747
:1012600080E090E03BC05196ED91FC9152975096F2
:101270002C915097322F30951FB75E964C915E9708
:1012800041FB772770F941FD6095F8944081772301
:1012900011F0422B01C043234083EC012197F1F769
:1012A00048E0508160FF02C0522B01C0532350839D
:1012B000EC012197F1F76695415099F780817723EA
:1012C00011F0832301C0822B80831FBF5C968D9118
:1012D0009C915D970197F1F781E090E0DF91CF91CC
:1012E0001F9108952091C1043091C2042817390735
:1012F00081F490917F0480918004981751F0E091DF
:101300007F04F0E0EF57FB4F8081992787FD909590
:1013100008958FEF9FEF08952091C1043091C2048A
:101320002817390771F48091800420917F0490E0A0
:10133000805C9F4F821B910960E470E00E94DD0F8A
:10134000089580E090E008952091C1043091C20496
:101350002817390739F48FB7F89410928004109247
:101360007F048FBF0895E091C104F091C204E81793
:10137000F90769F4A389B4899C91858980958923AB
:101380008C931092C2041092C10481E0089580E011
:101390000895CF93DF93EC018A8D9B8D892BF1F01B
:1013A0008091C1049091C2048C179D07B9F00097F9
:1013B00011F00E94B3098E8D8E7F8E8F1092800463
:1013C00010927F04D093C204C093C104EB89FC89BE
:1013D00080819D89892B808381E001C080E0DF913D
:1013E000CF9108951F920F920FB60F9211242F9351
:1013F0003F934F935F936F937F938F939F93AF939D
:10140000BF93EF93FF93E091C104F091C204309732
:1014100009F451C0868DA685B785958581FF04C0E6
:101420008C91892329F447C08C91892309F043C00A
:10143000A389B4899C918589809589238C93868919
:1014400097890197F1F7208D318DA685B785758530
:1014500058E040E0C9010197F1F7842F90E095959D
:101460008795482F6C91672309F04068515091F798
:10147000868D81FD40958091800490E001968F7368
:10148000992720917F04281749F0A0918004B0E0AB
:10149000AF57BB4F4C938093800403C0868D81600F
:1014A000868F828D938D0197F1F7A389B4898C91F2
:1014B0009589892B8C93FF91EF91BF91AF919F916B
:1014C0008F917F916F915F914F913F912F910F90ED
:1014D0000FBE0F901F90189525E932E0FC01318373
:1014E00020830C94B3091F93CF93DF93EC01162F45
:1014F0006E8D6695617081E06827812F0E94C10C16
:1015000061E0812F0E94880C812F90E0FC01E3585C
:10151000FA4FE491E88BFC01EF56FA4FE491F0E0CA
:10152000EE0FFF1FE155FA4F859194919A8B898BAD
:10153000DF91CF911F9108951F93CF93DF93EC011B
:10154000162F60E0812F0E94880C8E8D81FD04C0D3
:1015500061E0812F0E94C10C1C87812F90E0FC016B
:10156000E358FA4FE491ED87FC01EF56FA4FE4910E
:10157000F0E0EE0FFF1FEB55FA4F859194919F8796
:101580008E87DF91CF911F910895FF920F931F9344
:10159000CF93DF93EC01F62E522F1B821A8208EEB6
:1015A00013E020E030E00C831D832E833F8385E928
:1015B00092E0998388831F8A1E8A198E188E1B8E4B
:1015C0001A8E1D8E1C8E8E8D8E7F50FB81F98E8F14
:1015D000642FCE010E94730A6F2DCE01DF91CF914F
:1015E0001F910F91FF900C949C0ACF93DF93EC0115
:1015F0009A01AB011B8E1A8E198E188E1F8A1E8AB5
:1016000060E079E08DE390E00E941310C90124307E
:10161000310520F0B9016350710902C061E070E04A
:101620007D8F6C8FEC85E63108F068C0B901769546
:1016300067956431710518F06351710902C061E06A
:1016400070E07F8B6E8B069718F0C901059702C07A
:1016500081E090E0998F888FC901880F991F820FD0
:10166000931F96958795969587958D30910510F0E7
:101670000C9702C081E090E09B8F8A8F20916800D8
:10168000E83050F091E0EE3008F490E081E001C0E5
:10169000880F9A95EAF701C084E0822B8093680056
:1016A0002C85283038F02E3040F0263148F48CE676
:1016B00090E008C08DE690E005C08BE690E002C0A7
:1016C00080E090E09C8B8B8B283030F481E001C06F
:1016D000880F2A95EAF70DC0822F90E02E3010F483
:1016E000089701C00E9791E001C0990F8A95EAF71B
:1016F000892F8D8B8C8D9D8D0197F1F7CE01DF9118
:10170000CF910C94C9091F920F920FB60F9211241A
:101710002F933F938F939F93AF93BF938091C40474
:101720009091C504A091C604B091C7043091C30440
:1017300023E0230F2D3720F40196A11DB11D05C014
:1017400026E8230F0296A11DB11D2093C3048093A8
:10175000C4049093C504A093C604B093C7048091B9
:10176000C8049091C904A091CA04B091CB04019619
:10177000A11DB11D8093C8049093C904A093CA040D
:10178000B093CB04BF91AF919F918F913F912F91D7
:101790000F900FBE0F901F9018952FB7F89460917F
:1017A000C4047091C5048091C6049091C7042FBFF2
:1017B00008953FB7F8948091C8049091C904A0910E
:1017C000CA04B091CB0426B5A89B05C02F3F19F0E1
:1017D0000196A11DB11D3FBF6627782F892F9A2F33
:1017E000620F711D811D911D42E0660F771F881FDA
:1017F000991F4A95D1F70895CF92DF92EF92FF9209
:10180000CF93DF936B017C010E94D90BEB01C114D4
:10181000D104E104F10489F00E94D20E0E94D90B98
:101820006C1B7D0B683E734090F381E0C81AD108B1
:10183000E108F108C851DC4FEACFDF91CF91FF906A
:10184000EF90DF90CF900895789484B5826084BD46
:1018500084B5816084BD85B5826085BD85B58160B4
:1018600085BDEEE6F0E0808181608083E1E8F0E014
:101870001082808182608083808181608083E0E843
:10188000F0E0808181608083E1EBF0E08081846022
:101890008083E0EBF0E0808181608083EAE7F0E024
:1018A0008081846080838081826080838081816088
:1018B00080838081806880831092C1000895833086
:1018C00081F028F4813099F08230A1F008958730BA
:1018D000A9F08830B9F08430D1F4809180008F7DF8
:1018E00003C0809180008F7780938000089584B535
:1018F0008F7702C084B58F7D84BD08958091B0003C
:101900008F7703C08091B0008F7D8093B0000895E1
:10191000CF93DF9390E0FC01E358FA4F2491FC0150
:10192000EF56FA4F8491882349F190E0880F991F70
:10193000FC01E754FA4FA591B49181559A4FFC01EF
:10194000C591D4919FB7611108C0F8948C912095EE
:1019500082238C93888182230AC0623051F4F894E8
:101960008C91322F309583238C938881822B8883AE
:1019700004C0F8948C91822B8C939FBFDF91CF9100
:1019800008950F931F93CF93DF931F92CDB7DEB7C8
:10199000282F30E0F901E759FA4F8491F901E35813
:1019A000FA4F1491F901EF56FA4F04910023C9F050
:1019B000882321F069830E945F0C6981E02FF0E0A9
:1019C000EE0FFF1FE155FA4FA591B4919FB7F89420
:1019D0008C91611103C01095812301C0812B8C93E0
:1019E0009FBF0F90DF91CF911F910F910895FC0140
:1019F000818D228D90E0805C9F4F821B91098F73B7
:101A000099270895FC01918D828D981731F0828D70
:101A1000E80FF11D858D90E008958FEF9FEF0895F9
:101A2000FC01918D828D981761F0828DDF01A80FE6
:101A3000B11D5D968C91928D9F5F9F73928F90E008
:101A400008958FEF9FEF089582E39EE0892B49F080
:101A500080E090E0892B29F00E94320E81110C94D5
:101A600000000895FC01848DDF01A80FB11DA35A69
:101A7000BF4F2C91848D90E001968F739927848FAE
:101A8000A689B7892C93A089B1898C9180648C93A5
:101A9000938D848D981306C00288F389E02D808190
:101AA0008F7D80830895CF93DF93EC01888D882309
:101AB000C9F0EA89FB89808185FD05C0A889B989BB
:101AC0008C9186FD0FC00FB607FCF5CF808185FF96
:101AD000F2CFA889B9898C9185FFEDCFCE010E9404
:101AE000320DE7CFDF91CF910895CF92DF92FF9231
:101AF0000F931F93CF93DF931F92CDB7DEB76C0187
:101B0000DC015B969C915B975C968C915C9798133B
:101B100007C05096ED91FC915197808185FD32C0B0
:101B2000F601038D10E00F5F1F4F0F731127F02E8A
:101B3000F601848DF81211C00FB607FCF9CFD6015B
:101B40005096ED91FC915197808185FFF1CFC601B0
:101B500069830E94320D6981EBCF838DE80FF11DFF
:101B6000E35AFF4F6083D6015B960C935B975296C6
:101B7000ED91FC91539780818062808381E058963B
:101B80008C930DC0D6015696ED91FC9157976083CA
:101B90005096ED91FC91519780818064808381E023
:101BA00090E00F90DF91CF911F910F91FF90DF9008
:101BB000CF9008951F920F920FB60F9211242F937A
:101BC0008F939F93EF93FF93E091DC04F091DD04FA
:101BD0008081E091E204F091E30482FD12C09081E3
:101BE0008091E5048F5F8F732091E604821751F096
:101BF000E091E504F0E0E453FB4F958F8093E5041A
:101C000001C08081FF91EF919F918F912F910F9053
:101C10000FBE0F901F9018951F920F920FB60F9244
:101C200011242F933F934F935F936F937F938F93E1
:101C30009F93AF93BF93EF93FF938CEC94E00E943C
:101C4000320DFF91EF91BF91AF919F918F917F9155
:101C50006F915F914F913F912F910F900FBE0F9019
:101C60001F9018958CEC94E00E94F70C21E0892BD2
:101C700009F420E0822F08951092CF041092CE0430
:101C800088EE93E0A0E0B0E08093D0049093D1047C
:101C9000A093D204B093D30485EA92E09093CD044C
:101CA0008093CC0485EC90E09093D9048093D80481
:101CB00084EC90E09093DB048093DA0480EC90E075
:101CC0009093DD048093DC0481EC90E09093DF043A
:101CD0008093DE0482EC90E09093E1048093E00432
:101CE00086EC90E09093E3048093E2041092E50484
:101CF0001092E6041092E7041092E8040895089503
:101D00000E94240C0E947F0E0E94B904C4E2DDE010
:101D10000E9481052097E1F30E94240DF9CFCF9214
:101D2000DF92EF92FF920F931F93CF93DF936C019B
:101D30007A01EB01E60EF71E00E010E0CE15DF059C
:101D400061F06991D601ED91FC910190F081E02D57
:101D5000C6010995080F191FF1CFC801DF91CF9176
:101D60001F910F91FF90EF90DF90CF900895DC01CD
:101D7000ED91FC910190F081E02D09940F931F9358
:101D8000CF93DF93EC016DE00E94B70E8C016AE007
:101D9000CE010E94B70E800F911FDF91CF911F914E
:101DA0000F910895089504D06894B111E0C008958A
:101DB000ACD088F09F5790F0B92F9927B751A0F079
:101DC000D1F0660F771F881F991F1AF0BA95C9F7CF
:101DD00012C0B13081F0CAD0B1E00895C7C0672FFA
:101DE000782F8827B85F39F0B93FCCF3869577957F
:101DF0006795B395D9F73EF4909580957095619568
:101E00007F4F8F4F9F4F0895E89409C097FB3EF492
:101E100090958095709561957F4F8F4F9F4F992337
:101E2000A9F0F92F96E9BB279395F69587957795B5
:101E30006795B795F111F8CFFAF4BB0F11F460FF75
:101E40001BC06F5F7F4F8F4F9F4F16C0882311F0CD
:101E500096E911C0772321F09EE8872F762F05C0E1
:101E6000662371F096E8862F70E060E02AF09A957C
:101E7000660F771F881FDAF7880F9695879597F971
:101E800008955DD080F09F3740F491110EF06FC03F
:101E900060E070E080E89FEB089526F41B16611D5A
:101EA000711D811D01C01BC0882371F4772321F0AF
:101EB0009850872B762F07C0662311F499270DC001
:101EC0009051862B70E060E02AF09A95660F771F9C
:101ED000881FDAF7880F9695879597F908959F3FA1
:101EE00031F0915020F4879577956795B795880FD5
:101EF000911D9695879597F9089557FD9058440F31
:101F0000551F59F05F3F71F04795880F97FB991F58
:101F100061F09F3F79F08795089512161306140615
:101F2000551FF2CF4695F1DF08C0161617061806A2
:101F3000991FF1CF86957105610508940895E5DF35
:101F4000A0F0BEE7B91788F4BB279F3860F41616D7
:101F5000B11D672F782F8827985FF7CF86957795E3
:101F60006795B11D93959639C8F30895E894BB27FA
:101F700066277727CB0197F90895991B79E004C06C
:101F8000991F961708F0961B881F7A95C9F78095B8
:101F90000895AA1BBB1B51E107C0AA1FBB1FA617B0
:101FA000B70710F0A61BB70B881F991F5A95A9F702
:101FB00080959095BC01CD01089597FB072E16F4EE
:101FC000009407D077FD09D00E94C90F07FC05D007
:101FD0003EF4909581959F4F0895709561957F4F40
:101FE0000895A1E21A2EAA1BBB1BFD010DC0AA1F5A
:101FF000BB1FEE1FFF1FA217B307E407F50720F072
:10200000A21BB30BE40BF50B661F771F881F991FEC
:102010001A9469F760957095809590959B01AC0135
:10202000BD01CF010895052E97FB1EF400940E9478
:102030002A1057FD07D00E94F10F07FC03D04EF481
:102040000C942A1050954095309521953F4F4F4F55
:102050005F4F089590958095709561957F4F8F4F54
:102060009F4F0895EE0FFF1F0590F491E02D099406
:1020700015E0CAECD5E004C0FE010E94341022969F
:0A208000CC3CD107C9F7F894FFCF5C
:10208A000000690580002000000000000000000038
:10209A00000000000000000000000000000000E056
:1020AA00F8FCFEFFFFFFFFFFFFFF0F070706060012
:1020BA008080000000000000000000000000000016
:1020CA000000000000000000000000000000000006
:1020DA000000000000000000008080808080808175
:1020EA00070F3F3FFFFFFFFFFFFFFFFEFEFCFCFC69
:1020FA00FEFFFFFFFCF8E000000000000000000007
:10210A0000000000000000000000000000000000C5
:10211A00000000000000FCFEFFFFFFFFFFFFF1E0F0
:10212A00E0E0E0E0F0FDFFFFFFFFFFFFFFFFFFFF42
:10213A00FFFFFFFFFFFFFF0000000000000000009C
:10214A000000000000000000000000000000000085
:10215A00000000000000FFFFFFFFFFFFFFFFFFFF7F
:10216A00FFFFFFFFFFFFFFFFFFFFFFFFFFFFFFFF75
:10217A00FFFF7F3F1F070100000000000000000072
:10218A000000000000000000000000000000000045
:10219A00000000000000FFFFFFFFFFFFFFFFFF7FBF
:1021AA003F1F1F0F0F0F0F0F0F0F0F070707030315
:1021BA000100000000000000000000000000000014
:1021CA000000000000000000000000000000000005
:1021DA00000000000000FF7F3F1F0F0703010000FF
:1021EA0000000000000000000000000000000000E5
:1021FA0000000000000000000000000000000000D5
:10220A00000000000000006800000000008C078F3A
:10221A000E0000000020098F0E8C09FF087209A425
:10222A000900000000750D8F0EF70C100D020D53FA
:02223A000D0095
:00000001FF
